{
  "contractName": "NewGame",
  "abi": [
    {
      "constant": true,
      "inputs": [],
      "name": "playSize",
      "outputs": [
        {
          "name": "",
          "type": "uint256"
        }
      ],
      "payable": false,
      "stateMutability": "view",
      "type": "function"
    },
    {
      "constant": true,
      "inputs": [
        {
          "name": "",
          "type": "uint256"
        }
      ],
      "name": "players",
      "outputs": [
        {
          "name": "player",
          "type": "address"
        },
        {
          "name": "guessNum",
          "type": "uint256"
        },
        {
          "name": "bet",
          "type": "uint256"
        }
      ],
      "payable": false,
      "stateMutability": "view",
      "type": "function"
    },
    {
      "inputs": [],
      "payable": false,
      "stateMutability": "nonpayable",
      "type": "constructor"
    },
    {
      "anonymous": false,
      "inputs": [
        {
          "indexed": false,
          "name": "bet",
          "type": "uint256"
        },
        {
          "indexed": false,
          "name": "count",
          "type": "uint256"
        },
        {
          "indexed": false,
          "name": "addr",
          "type": "address"
        }
      ],
      "name": "player_count_event",
      "type": "event"
    },
    {
      "anonymous": false,
      "inputs": [
        {
          "indexed": false,
          "name": "adr",
          "type": "address[4]"
        },
        {
          "indexed": false,
          "name": "winamount",
          "type": "uint256[4]"
        }
      ],
      "name": "totalwinamoubt",
      "type": "event"
    },
    {
      "anonymous": false,
      "inputs": [
        {
          "indexed": false,
          "name": "adr",
          "type": "address[4]"
        },
        {
          "indexed": false,
          "name": "guessnums",
          "type": "uint256[4]"
        },
        {
          "indexed": false,
          "name": "winPercent",
          "type": "uint256[4]"
        },
        {
          "indexed": false,
          "name": "count",
          "type": "uint256"
        },
        {
          "indexed": false,
          "name": "bet",
          "type": "uint256"
        }
      ],
      "name": "playerdetails_event",
      "type": "event"
    },
    {
      "constant": false,
      "inputs": [
        {
          "name": "adr",
          "type": "address"
        },
        {
          "name": "guessnum",
          "type": "uint256"
        },
        {
          "name": "bet",
          "type": "uint256"
        }
      ],
      "name": "joinGame",
      "outputs": [],
      "payable": true,
      "stateMutability": "payable",
      "type": "function"
    },
    {
      "constant": true,
      "inputs": [
        {
          "name": "bet",
          "type": "uint256"
        }
      ],
      "name": "getPlayerAddress",
      "outputs": [
        {
          "name": "",
          "type": "address[4]"
        },
        {
          "name": "",
          "type": "uint256"
        }
      ],
      "payable": false,
      "stateMutability": "view",
      "type": "function"
    },
    {
      "constant": true,
      "inputs": [
        {
          "name": "bet_val",
          "type": "uint256"
        }
      ],
      "name": "checkPoolcheck",
      "outputs": [
        {
          "name": "",
          "type": "bool"
        }
      ],
      "payable": false,
      "stateMutability": "view",
      "type": "function"
    },
    {
      "constant": true,
      "inputs": [
        {
          "name": "adr",
          "type": "address"
        },
        {
          "name": "bet",
          "type": "uint256"
        }
      ],
      "name": "checkDuplicate",
      "outputs": [
        {
          "name": "",
          "type": "bool"
        }
      ],
      "payable": false,
      "stateMutability": "view",
      "type": "function"
    },
    {
      "constant": true,
      "inputs": [],
      "name": "getContractBal",
      "outputs": [
        {
          "name": "",
          "type": "uint256"
        }
      ],
      "payable": false,
      "stateMutability": "view",
      "type": "function"
    },
    {
      "constant": false,
      "inputs": [
        {
          "name": "bet",
          "type": "uint256"
        }
      ],
      "name": "distributeReward",
      "outputs": [],
      "payable": false,
      "stateMutability": "nonpayable",
      "type": "function"
    },
    {
      "constant": false,
      "inputs": [
        {
          "name": "bet",
          "type": "uint256"
        }
      ],
      "name": "magicmagic",
      "outputs": [
        {
          "name": "",
          "type": "uint256[4]"
        }
      ],
      "payable": false,
      "stateMutability": "nonpayable",
      "type": "function"
    },
    {
      "constant": false,
      "inputs": [
        {
          "name": "total_rewards",
          "type": "uint256"
        },
        {
          "name": "winpercentage",
          "type": "uint256[4]"
        },
        {
          "name": "bet",
          "type": "uint256"
        }
      ],
      "name": "priceDistribution",
      "outputs": [
        {
          "name": "",
          "type": "uint256[4]"
        }
      ],
      "payable": false,
      "stateMutability": "nonpayable",
      "type": "function"
    },
    {
      "constant": false,
      "inputs": [
        {
          "name": "winDeviation",
          "type": "uint256[4]"
        },
        {
          "name": "guessAvg",
          "type": "uint256"
        },
        {
          "name": "bet",
          "type": "uint256"
        }
      ],
      "name": "winpercentage",
      "outputs": [
        {
          "name": "",
          "type": "uint256[4]"
        }
      ],
      "payable": false,
      "stateMutability": "nonpayable",
      "type": "function"
    },
    {
      "constant": true,
      "inputs": [
        {
          "name": "avg",
          "type": "uint256"
        },
        {
          "name": "deviateAvg",
          "type": "uint256"
        },
        {
          "name": "deviateValue",
          "type": "uint256[4]"
        }
      ],
      "name": "deviatedValues",
      "outputs": [
        {
          "name": "",
          "type": "uint256[4]"
        }
      ],
      "payable": false,
      "stateMutability": "view",
      "type": "function"
    },
    {
      "constant": true,
      "inputs": [
        {
          "name": "deviate",
          "type": "uint256[4]"
        }
      ],
      "name": "sumDeviate",
      "outputs": [
        {
          "name": "",
          "type": "uint256"
        }
      ],
      "payable": false,
      "stateMutability": "view",
      "type": "function"
    },
    {
      "constant": true,
      "inputs": [
        {
          "name": "guessAvg",
          "type": "uint256"
        },
        {
          "name": "bet",
          "type": "uint256"
        }
      ],
      "name": "calcDeviate",
      "outputs": [
        {
          "name": "",
          "type": "uint256[4]"
        }
      ],
      "payable": false,
      "stateMutability": "view",
      "type": "function"
    },
    {
      "constant": true,
      "inputs": [
        {
          "name": "bet",
          "type": "uint256"
        }
      ],
      "name": "calcTotalether",
      "outputs": [
        {
          "name": "",
          "type": "uint256"
        }
      ],
      "payable": false,
      "stateMutability": "view",
      "type": "function"
    },
    {
      "constant": true,
      "inputs": [
        {
          "name": "bet",
          "type": "uint256"
        }
      ],
      "name": "calculateSum",
      "outputs": [
        {
          "name": "",
          "type": "uint256"
        }
      ],
      "payable": false,
      "stateMutability": "view",
      "type": "function"
    }
  ],
  "bytecode": "0x608060405234801561001057600080fd5b506000600181905580546001600160a01b031916331790556110e8806100376000396000f3fe6080604052600436106100f35760003560e01c8063652256651161008a578063cb081f3f11610059578063cb081f3f146103b7578063e2e5be491461041b578063ea0a0fc514610482578063f71d96cb146104e7576100f3565b806365225665146102c65780636b7226d51461032f5780637ace30cc14610359578063940a4e451461038d576100f3565b806351d603fb116100c657806351d603fb146101fe578063540570d21461025d5780635d9fa6fc146102875780635f8932ff1461029c576100f3565b8063021a2acf146100f85780632a020b911461015a5780633955b6721461018a5780634c11763d146101b1575b600080fd5b34801561010457600080fd5b506101226004803603602081101561011b57600080fd5b5035610539565b6040518082608080838360005b8381101561014757818101518382015260200161012f565b5050505090500191505060405180910390f35b34801561016657600080fd5b506101226004803603604081101561017d57600080fd5b508035906020013561060b565b34801561019657600080fd5b5061019f610771565b60408051918252519081900360200190f35b3480156101bd57600080fd5b506101ea600480360360408110156101d457600080fd5b506001600160a01b038135169060200135610776565b604080519115158252519081900360200190f35b34801561020a57600080fd5b5061019f6004803603608081101561022157600080fd5b81019080806080019060048060200260405190810160405280929190826004602002808284376000920191909152509194506107e59350505050565b34801561026957600080fd5b5061019f6004803603602081101561028057600080fd5b5035610811565b34801561029357600080fd5b5061019f61087e565b3480156102a857600080fd5b5061019f600480360360208110156102bf57600080fd5b5035610884565b3480156102d257600080fd5b506102f0600480360360208110156102e957600080fd5b50356108f0565b6040518083608080838360005b838110156103155781810151838201526020016102fd565b505050509050018281526020019250505060405180910390f35b34801561033b57600080fd5b506101ea6004803603602081101561035257600080fd5b503561099c565b61038b6004803603606081101561036f57600080fd5b506001600160a01b0381351690602081013590604001356109d9565b005b34801561039957600080fd5b5061038b600480360360208110156103b057600080fd5b5035610af2565b3480156103c357600080fd5b50610122600480360360c08110156103da57600080fd5b810190808060800190600480602002604051908101604052809291908260046020028082843760009201919091525091945050813592505060200135610d50565b34801561042757600080fd5b50610122600480360360c081101561043e57600080fd5b6040805160808181018352843594602081013594810193909260c084019290918401906004908390839080828437600092019190915250919450610f289350505050565b34801561048e57600080fd5b50610122600480360360c08110156104a557600080fd5b604080516080818101909252833593928301929160a083019190602084019060049083908390808284376000920191909152509194505090359150610f7b9050565b3480156104f357600080fd5b506105116004803603602081101561050a57600080fd5b5035610fe8565b604080516001600160a01b039094168452602084019290925282820152519081900360600190f35b610541611022565b600061054c83610811565b90506064600a820204808203600061056386610884565b60008781526003602052604081205491925090606483028161058157fe5b04905061058c611022565b610596828961060b565b600089815260036020526040812054919250906105b2836107e5565b816105b957fe5b0490506105c4611022565b6105cf848385610f28565b90506105d9611022565b6105e482868d610d50565b90506105ee611022565b6105f988838e610f7b565b9a50505050505050505050505b919050565b610613611022565b61061b611022565b600083815260036020526040902054600414156107685760005b60008481526003602052604090205481101561076657600084815260036020526040902080548691908390811061066857fe5b90600052602060002090600302016001015460640211156106d05760008481526003602052604081208054879190849081106106a057fe5b906000526020600020906003020160010154606402039050808383600481106106c557fe5b60200201525061075e565b60008481526003602052604090208054869190839081106106ed57fe5b906000526020600020906003020160010154606402101561074857600084815260036020526040812080548390811061072257fe5b90600052602060002090600302016001015460640286039050808383600481106106c557fe5b60008083836004811061075757fe5b6020020152505b600101610635565b505b90505b92915050565b600481565b6000818152600360205260408120548190156107de5760008381526003602052604090208054829081106107a657fe5b60009182526020909120600390910201546001600160a01b03858116911614156107d457600191505061076b565b600091505061076b565b5092915050565b600080805b60048110156107de578381600481106107ff57fe5b602002015191909101906001016107ea565b60008181526003602052604081205481906004141561076b5760005b6000848152600360205260409020548110156107de57600084815260036020526040902080548290811061085d57fe5b6000918252602090912060026003909202010154919091019060010161082d565b30315b90565b60008181526003602052604081205481906004141561076b5760005b6000848152600360205260409020548110156107de5760008481526003602052604090208054829081106108d057fe5b6000918252602090912060016003909202018101549290920191016108a0565b6108f8611022565b6000610902611022565b600084815260036020526040902054156109955760005b60008581526003602052604090205481101561098a57600085815260036020526040902080548290811061094957fe5b60009182526020909120600390910201546001600160a01b031682826004811061096f57fe5b6001600160a01b039092166020929092020152600101610919565b509150829050610997565b505b915091565b600081606414806109ae5750816101f4145b806109b9575081600a145b806109c45750816032145b156109d157506001610606565b506000610606565b6109e1611040565b50604080516060810182526001600160a01b0385168152602080820185905281830184905260008481526003909152919091205460041115610ae057600082815260036020818152604080842080546001808201835582875284872088519290960290950180546001600160a01b0319166001600160a01b039283161781558785015195810195909555868301516002909501949094559386905292548351868152918201529086168183015290517f8fbfb0ab3e26c35a02efeb8ce88a93ccf75f3fb8d236d7fb5825c53fe40318cd916060908290030190a160008281526003602052604090205460041415610adb57610adb82610af2565b610aec565b610aec6002600061106a565b50505050565b60008181526003602052604090205460041415610d4d57610b11611022565b610b19611022565b610b2283610811565b303110610d4a57610b31611022565b610b3a84610539565b905060005b6004811015610c4b576000858152600360205260409020805482908110610b6257fe5b60009182526020909120600390910201546001600160a01b0316848260048110610b8857fe5b6001600160a01b039092166020929092020152818160048110610ba757fe5b60200201516298968002838260048110610bbd57fe5b602002018181525050600360008681526020019081526020016000208181548110610be457fe5b60009182526020909120600390910201546001600160a01b03166108fc838360048110610c0d57fe5b602002015162989680029081150290604051600060405180830381858888f19350505050158015610c42573d6000803e3d6000fd5b50600101610b3f565b507f9f6f414874356e0ddc6ad0c175d75a55b88ee62518a6db5a4a24cc7ea9dcd56d83836040518083600460200280838360005b83811015610c97578181015183820152602001610c7f565b5050505090500182600460200280838360005b83811015610cc2578181015183820152602001610caa565b505050509050019250505060405180910390a16000610ce085610811565b600080546040519293506064600a850204926001600160a01b039091169166038d7ea4c68000840280156108fc02929091818181858888f19350505050158015610d2e573d6000803e3d6000fd5b506000868152600360205260408120610d469161106a565b5050505b50505b50565b610d58611022565b610d60611022565b610d68611022565b610d70611022565b600180548101905560005b6004811015610e555786888260048110610d9157fe5b60200201516127100281610da157fe5b04828260048110610dae57fe5b602002018181525050600360008781526020019081526020016000208181548110610dd557fe5b60009182526020909120600390910201546001600160a01b0316848260048110610dfb57fe5b6001600160a01b03909216602092830291909101526000878152600390915260409020805482908110610e2a57fe5b906000526020600020906003020160010154838260048110610e4857fe5b6020020152600101610d7b565b507fa279b030b3ab2ad91fc6cae66cbc489fdd77454788970be816e9eb2cacb8bbd3838383600154896040518086600460200280838360005b83811015610ea6578181015183820152602001610e8e565b5050505090500185600460200280838360005b83811015610ed1578181015183820152602001610eb9565b5050505090500184600460200280838360005b83811015610efc578181015183820152602001610ee4565b505050509050018381526020018281526020019550505050505060405180910390a19695505050505050565b610f30611022565b610f38611022565b60005b6004811015610f7257838160048110610f5057fe5b602002015185870103828260048110610f6557fe5b6020020152600101610f3b565b50949350505050565b610f83611022565b610f8b611022565b60005b6004811015610f7257848160048110610fa357fe5b602002015160036000868152602001908152602001600020805490508760640281610fca57fe5b0402606402828260048110610fdb57fe5b6020020152600101610f8e565b60028181548110610ff557fe5b60009182526020909120600390910201805460018201546002909201546001600160a01b03909116925083565b60405180608001604052806004906020820280388339509192915050565b604051806060016040528060006001600160a01b0316815260200160008152602001600081525090565b5080546000825560030290600052602060002090810190610d4d919061088191905b808211156110b85780546001600160a01b0319168155600060018201819055600282015560030161108c565b509056fea165627a7a723058200ef07adbbeb23dec48c0e5569b46a2531b404aba23125ba85096152968691c250029",
  "source": "pragma solidity ^0.5.0;\n\ncontract NewGame {\n     address payable developer;\n    //Struct to hold player details\n    struct Player{\n        address payable player;\n        uint guessNum;\n        uint bet;\n    }\n    //table count for each round of play (optional)\n    uint tablecount;\n    //developer's address to receive commision\n\n    //event to track player count in front end\n    event player_count_event(uint bet,uint count,address addr);\n\n    event totalwinamoubt(address[playSize] adr,uint256[playSize] winamount);\n    //Player pool size as per requirement size = 10\n    uint constant public playSize=4;\n    //Event to track history of transactions with player details\n    event playerdetails_event(address[playSize] adr,uint[playSize] guessnums,uint[playSize] winPercent,uint count,uint bet);\n    //Player struct array to hold players details\n    Player[] public players;\n    //mapping with different bet size i,e 50,100,500,10 each represent 0.05,0.1,0.5,0.01 eth.\n    mapping (uint => Player[]) pools;\n\n    constructor() public{\n      //Initialize table count to 0\n      tablecount = 0;\n      developer = msg.sender;\n    }\n\n    //Function called while player placing bet\n    function joinGame(address payable adr,uint guessnum, uint bet) public payable{\n        //initialize struct\n        Player memory p1 = Player(address(0),0,0);\n\n        p1.player = adr;\n        p1.guessNum = guessnum;\n        p1.bet = bet;\n        //Check for play size to enter the pool\n         if(pools[bet].length < playSize){\n            //push the player to mapped bet\n             pools[bet].push(p1);\n             //emitting the player count event\n            emit player_count_event(bet,pools[bet].length,adr);\n            //If player count reaches the pool size call the calculation\n             if(pools[bet].length == playSize){\n                distributeReward(bet);\n            }\n        }else{\n            delete players;\n        }\n    }\n\n    //get player address as array by sending bet value\n    function getPlayerAddress(uint bet) public view returns (address[playSize] memory,uint){\n        address[playSize] memory addrarray;\n        if(pools[bet].length != 0){\n            for(uint i=0;i<pools[bet].length;i++){\n                addrarray[i] = pools[bet][i].player;\n            }\n            return (addrarray,bet);\n        }\n    }\n    //pool check from frontend\n    function checkPoolcheck(uint bet_val) public view returns(bool){\n      if (bet_val == 100 || bet_val == 500 || bet_val == 10 || bet_val == 50){\n        return true;\n      }else{\n        return false;\n      }\n    }\n    //Checking the duplicate address in the pool restricting user is already bet is placed\n    function checkDuplicate(address adr,uint bet) public view returns(bool){\n        for(uint i=0; i<pools[bet].length; i++){\n            if(adr == pools[bet][i].player){\n                return true;\n            }else{\n                return false;\n            }\n        }\n    }\n\n    //To get contract balance\n    function getContractBal() public view returns (uint256){\n        return address(this).balance;\n    }\n\n  //reward distribution function\n  function distributeReward(uint bet) public{ //function distributeReward(bet) public{\n    //Pool size must be filled and player count must be equal to playsize\n      if(pools[bet].length == playSize){\n\n          address[playSize] memory adr;\n        uint[playSize] memory winAmount;\n\n        //Contract balance must be greater than winning rewards\n           if(address(this).balance >= calcTotalether(bet)){\n             //To get win percentage of all the players of the pool\n              uint[playSize] memory rewards = magicmagic(bet);\n              for(uint i = 0;i<rewards.length; i++){\n                //Transfer based on the percentage and bet amount of the pool\n                 adr[i] = pools[bet][i].player;\n                 winAmount[i] = rewards[i]*10000000;\n                 pools[bet][i].player.transfer(rewards[i]*10000000);\n              }\n              emit totalwinamoubt(adr,winAmount);\n              uint total_ether = calcTotalether(bet); //\n            uint commision = (total_ether*10)/100;\n              //transfer to developer\n              developer.transfer(commision*1000000000000000);\n              //emit bet and bet length for live tracking in front end\n              //emit player_count_event(bet,pools[bet].length,);\n              delete pools[bet];\n\n          }\n      }\n  }\n\n    function magicmagic(uint bet) public returns(uint[playSize] memory) {\n        //Total ether\n        uint total_ether = calcTotalether(bet); //\n        //commision\n        uint commision = (total_ether*10)/100;\n        //Reward for players to split\n        uint total_rewards = total_ether - commision;\n        //Sum of guess numbers of the players in the pool\n        uint guessSum = calculateSum(bet);\n        //Guess average of the players in the pool i.e mean of the numbers\n        uint guessAvg =  guessSum*100/pools[bet].length;\n        //Deviation from mean of each player's guess number\n        uint[playSize] memory deviateValue = calcDeviate(guessAvg,bet);\n        //Deviation average calculation\n        uint deviateAvg = sumDeviate(deviateValue)/pools[bet].length;\n        //Windeviation of each player's guess number\n        uint[playSize] memory winDeviation = deviatedValues(guessAvg,deviateAvg,deviateValue);\n        //Percentage calculation of the win Deviation\n        uint[playSize] memory winpercentage = winpercentage(winDeviation,guessAvg,bet);\n        //Price distribution with total rewards\n        uint[playSize] memory priceDistribution = priceDistribution(total_rewards,winpercentage,bet);\n        return priceDistribution;\n    }\n\n    function priceDistribution(uint total_rewards,uint[playSize]memory winpercentage,uint bet) public returns(uint[playSize] memory){\n        uint[playSize] memory result;\n        for(uint i=0;i<winpercentage.length;i++){\n            result[i] = ((total_rewards*100/pools[bet].length) * winpercentage[i] *100);\n        }\n        return result;\n    }\n    function winpercentage(uint[playSize] memory winDeviation,uint guessAvg,uint bet) public returns (uint[playSize] memory){\n      address[playSize] memory adr;\n      uint[playSize] memory guessnums;\n        uint[playSize] memory result;\n\n        tablecount++;\n\n        for(uint i=0;i<winDeviation.length;i++){\n            result[i] = winDeviation[i]*100*100/guessAvg;\n            adr[i] = pools[bet][i].player;\n            guessnums[i] = pools[bet][i].guessNum;\n        }\n        //Player details event emiiting to capture in frontend\n        emit playerdetails_event(adr,guessnums,result,tablecount,bet);\n        return result;\n    }\n    function deviatedValues(uint avg,uint deviateAvg,uint[playSize] memory deviateValue) public view returns(uint[playSize] memory){\n        uint[playSize] memory result;\n        for(uint i=0;i<deviateValue.length;i++){\n            result[i] = avg + deviateAvg - deviateValue[i];\n        }\n        return result;\n    }\n\n    function sumDeviate(uint[playSize] memory deviate) public view returns(uint){\n        uint sum = 0;\n        for(uint i=0;i<deviate.length;i++){\n            sum = sum + deviate[i];\n        }\n        return sum;\n    }\n    function calcDeviate(uint guessAvg,uint bet) public view returns(uint[playSize] memory){\n        uint[playSize] memory result;\n        if(pools[bet].length == playSize){\n            for(uint i=0;i<pools[bet].length;i++){\n              //nearest mean deviation for each player's guess value\n                if(pools[bet][i].guessNum*100 > guessAvg){\n                    uint temp = pools[bet][i].guessNum*100-guessAvg;\n                    result[i] = temp;\n                }else if(pools[bet][i].guessNum*100 < guessAvg ){\n                    uint temp = guessAvg - pools[bet][i].guessNum*100;\n                    result[i] = temp;\n                }else{\n                    uint temp = 0;\n                    result[i] = temp;\n                }\n            }\n        }\n        return result;\n    }\n\n    function calcTotalether(uint bet) public view returns(uint){\n        uint sum = 0;\n        if(pools[bet].length == playSize){\n            for(uint i=0;i<pools[bet].length;i++){\n                sum = sum + pools[bet][i].bet;\n            }\n        }\n        return sum;\n    }\n\n    function calculateSum(uint bet) public view returns(uint){\n        uint sum = 0;\n        if(pools[bet].length == playSize){\n            for(uint i=0;i<pools[bet].length;i++){\n                sum = sum + pools[bet][i].guessNum;\n            }\n        }\n        return sum;\n    }\n}\n",
  "sourcePath": "/Users/chandramoulis/Desktop/GoMean/contracts/NewGame.sol",
  "compiler": {
    "name": "solc",
    "version": "0.5.8+commit.23d335f2.Emscripten.clang"
  },
  "schemaVersion": "3.0.11",
  "updatedAt": "2019-08-16T09:00:48.632Z",
  "devdoc": {
    "methods": {}
  },
  "userdoc": {
    "methods": {}
  }
}