{
  "contractName": "WithoutSol",
  "abi": [
    {
      "constant": true,
      "inputs": [],
      "name": "max_players",
      "outputs": [
        {
          "name": "",
          "type": "uint256"
        }
      ],
      "payable": false,
      "stateMutability": "view",
      "type": "function"
    },
    {
      "constant": true,
      "inputs": [
        {
          "name": "",
          "type": "uint256"
        }
      ],
      "name": "players",
      "outputs": [
        {
          "name": "player",
          "type": "address"
        },
        {
          "name": "guessNum",
          "type": "uint256"
        },
        {
          "name": "bet",
          "type": "uint256"
        }
      ],
      "payable": false,
      "stateMutability": "view",
      "type": "function"
    },
    {
      "inputs": [],
      "payable": false,
      "stateMutability": "nonpayable",
      "type": "constructor"
    },
    {
      "constant": false,
      "inputs": [
        {
          "name": "adr",
          "type": "address"
        },
        {
          "name": "guessnum",
          "type": "uint256"
        },
        {
          "name": "bet",
          "type": "uint256"
        }
      ],
      "name": "joinGame",
      "outputs": [],
      "payable": true,
      "stateMutability": "payable",
      "type": "function"
    },
    {
      "constant": true,
      "inputs": [],
      "name": "getPlayerAddress",
      "outputs": [
        {
          "name": "",
          "type": "address[]"
        }
      ],
      "payable": false,
      "stateMutability": "view",
      "type": "function"
    },
    {
      "constant": true,
      "inputs": [
        {
          "name": "adr",
          "type": "address"
        }
      ],
      "name": "checkDuplicate",
      "outputs": [
        {
          "name": "",
          "type": "bool"
        }
      ],
      "payable": false,
      "stateMutability": "view",
      "type": "function"
    }
  ],
  "bytecode": "0x608060405234801561001057600080fd5b50600a600055610444806100256000396000f3fe60806040526004361061004a5760003560e01c806349e65d321461004f5780635340dee41461007657806374eba0fe146100db5780637ace30cc14610122578063f71d96cb14610156575b600080fd5b34801561005b57600080fd5b506100646101a8565b60408051918252519081900360200190f35b34801561008257600080fd5b5061008b6101ae565b60408051602080825283518183015283519192839290830191858101910280838360005b838110156100c75781810151838201526020016100af565b505050509050019250505060405180910390f35b3480156100e757600080fd5b5061010e600480360360208110156100fe57600080fd5b50356001600160a01b0316610210565b604080519115158252519081900360200190f35b6101546004803603606081101561013857600080fd5b506001600160a01b038135169060208101359060400135610269565b005b34801561016257600080fd5b506101806004803603602081101561017957600080fd5b50356103b4565b604080516001600160a01b039094168452602084019290925282820152519081900360600190f35b60005481565b6060600280548060200260200160405190810160405280929190818152602001828054801561020657602002820191906000526020600020905b81546001600160a01b031681526001909101906020018083116101e8575b5050505050905090565b600080600154811015610262576001818154811061022a57fe5b60009182526020909120600390910201546001600160a01b0384811691161415610258576001915050610264565b6000915050610264565b505b919050565b61027283610210565b15801561028157506001546003115b156103af5761028e6103ee565b50604080516060810182526001600160a01b0385168082526020820185905291810183905260028054600181810183556000929092527f405787fa12a823e0f2b7631cc41b3ba8828b3321ca811111fa75cd3aa3bb5ace0180546001600160a01b0319169093179092559054600311156103ad5760018054808201825560009190915281517fb10e2d527612073b26eecdfd717e6a320cf44b4afac2b0732d9fcbe2b7fa0cf6600390920291820180546001600160a01b0319166001600160a01b0390921691909117905560208201517fb10e2d527612073b26eecdfd717e6a320cf44b4afac2b0732d9fcbe2b7fa0cf782015560408201517fb10e2d527612073b26eecdfd717e6a320cf44b4afac2b0732d9fcbe2b7fa0cf8909101555b505b505050565b600181815481106103c157fe5b60009182526020909120600390910201805460018201546002909201546001600160a01b03909116925083565b604051806060016040528060006001600160a01b031681526020016000815260200160008152509056fea165627a7a723058201f0b4d7f76cf24806d652ea5565f617bba5620cba223f1a8fd3e0eb4398e12bf0029",
  "source": "pragma solidity ^0.5.0;\n\ncontract WithoutSol {\n\n    struct Player{\n        address player;\n        uint guessNum;\n        uint bet;\n\n    }\n    uint public max_players;\n    Player[] public players;\n    address[] playerAddress;\n\n    constructor() public{\n      max_players = 10;\n    }\n    function joinGame(address adr,uint guessnum, uint bet) public payable{\n        if(!checkDuplicate(adr) && players.length<3){\n        Player memory p1 = Player(address(0),0,0);\n        p1.player = adr;\n        p1.guessNum = guessnum;\n        p1.bet = bet;\n        playerAddress.push(adr);\n        if(players.length < 3){\n            players.push(p1);\n        }else{\n           // delete players;\n        }\n        }\n\n    }\n    function getPlayerAddress() public view returns (address[] memory){\n\n            return playerAddress;\n\n    }\n    function checkDuplicate(address adr) public view returns(bool){\n        for(uint i=0; i<players.length; i++){\n            if(adr == players[i].player){\n                return true;\n            }else{\n                return false;\n            }\n        }\n    }\n\n\n}\n",
  "sourcePath": "/Users/chandramoulis/Desktop/GoMean/contracts/withoutcalcution.sol",
  "compiler": {
    "name": "solc",
    "version": "0.5.8+commit.23d335f2.Emscripten.clang"
  },
  "schemaVersion": "3.0.11",
  "updatedAt": "2019-08-16T09:00:48.656Z",
  "devdoc": {
    "methods": {}
  },
  "userdoc": {
    "methods": {}
  }
}