{
  "contractName": "NeutralDragonTournament",
  "abi": [
    {
      "constant": true,
      "inputs": [],
      "name": "totalNOfParticipants",
      "outputs": [
        {
          "name": "",
          "type": "uint256"
        }
      ],
      "payable": false,
      "stateMutability": "view",
      "type": "function"
    },
    {
      "inputs": [],
      "payable": false,
      "stateMutability": "nonpayable",
      "type": "constructor"
    },
    {
      "anonymous": false,
      "inputs": [
        {
          "indexed": false,
          "name": "status",
          "type": "string"
        },
        {
          "indexed": false,
          "name": "count",
          "type": "uint256"
        }
      ],
      "name": "playerJoiningEvent",
      "type": "event"
    },
    {
      "anonymous": false,
      "inputs": [
        {
          "indexed": false,
          "name": "prize1",
          "type": "uint256"
        },
        {
          "indexed": false,
          "name": "prize2",
          "type": "uint256"
        },
        {
          "indexed": false,
          "name": "tableTopScorer",
          "type": "uint256"
        },
        {
          "indexed": false,
          "name": "developerCommission",
          "type": "uint256"
        }
      ],
      "name": "prizeAmount",
      "type": "event"
    },
    {
      "constant": true,
      "inputs": [
        {
          "name": "playerAddress",
          "type": "address"
        }
      ],
      "name": "checkPlayerExists",
      "outputs": [
        {
          "name": "",
          "type": "bool"
        }
      ],
      "payable": false,
      "stateMutability": "view",
      "type": "function"
    },
    {
      "constant": false,
      "inputs": [
        {
          "name": "adr",
          "type": "address"
        },
        {
          "name": "wizardId",
          "type": "uint256"
        },
        {
          "name": "affinityType",
          "type": "uint256"
        }
      ],
      "name": "joinTournament",
      "outputs": [],
      "payable": true,
      "stateMutability": "payable",
      "type": "function"
    },
    {
      "constant": true,
      "inputs": [
        {
          "name": "wizardAddress",
          "type": "address[]"
        }
      ],
      "name": "roundFixture",
      "outputs": [
        {
          "name": "",
          "type": "address[]"
        },
        {
          "name": "",
          "type": "address[]"
        }
      ],
      "payable": false,
      "stateMutability": "view",
      "type": "function"
    },
    {
      "constant": false,
      "inputs": [
        {
          "name": "playerAdress",
          "type": "address"
        }
      ],
      "name": "resendJoiningFee",
      "outputs": [],
      "payable": true,
      "stateMutability": "payable",
      "type": "function"
    },
    {
      "constant": false,
      "inputs": [
        {
          "name": "wizard1Address",
          "type": "address"
        },
        {
          "name": "wizard2Address",
          "type": "address"
        },
        {
          "name": "wizard3Address",
          "type": "address"
        }
      ],
      "name": "distributePrize",
      "outputs": [],
      "payable": true,
      "stateMutability": "payable",
      "type": "function"
    }
  ],
  "bytecode": "0x608060405234801561001057600080fd5b5033600260006101000a81548173ffffffffffffffffffffffffffffffffffffffff021916908373ffffffffffffffffffffffffffffffffffffffff1602179055506000600181905550610cc7806100696000396000f3fe6080604052600436106100555760003560e01c80632b30aa1b1461005a5780634081d9161461009e5780634251cbb3146101075780635566455814610269578063684b3882146102c15780639b54f5a514610345575b600080fd5b61009c6004803603602081101561007057600080fd5b81019080803573ffffffffffffffffffffffffffffffffffffffff169060200190929190505050610370565b005b3480156100aa57600080fd5b506100ed600480360360208110156100c157600080fd5b81019080803573ffffffffffffffffffffffffffffffffffffffff16906020019092919050505061041c565b604051808215151515815260200191505060405180910390f35b34801561011357600080fd5b506101ca6004803603602081101561012a57600080fd5b810190808035906020019064010000000081111561014757600080fd5b82018360208201111561015957600080fd5b8035906020019184602083028401116401000000008311171561017b57600080fd5b919080806020026020016040519081016040528093929190818152602001838360200280828437600081840152601f19601f8201169050808301925050505050505091929192905050506104c5565b604051808060200180602001838103835285818151815260200191508051906020019060200280838360005b838110156102115780820151818401526020810190506101f6565b50505050905001838103825284818151815260200191508051906020019060200280838360005b83811015610253578082015181840152602081019050610238565b5050505090500194505050505060405180910390f35b6102bf6004803603606081101561027f57600080fd5b81019080803573ffffffffffffffffffffffffffffffffffffffff1690602001909291908035906020019092919080359060200190929190505050610645565b005b610343600480360360608110156102d757600080fd5b81019080803573ffffffffffffffffffffffffffffffffffffffff169060200190929190803573ffffffffffffffffffffffffffffffffffffffff169060200190929190803573ffffffffffffffffffffffffffffffffffffffff1690602001909291905050506107e5565b005b34801561035157600080fd5b5061035a610c5e565b6040518082815260200191505060405180910390f35b3373ffffffffffffffffffffffffffffffffffffffff168173ffffffffffffffffffffffffffffffffffffffff16146103a857600080fd5b600260009054906101000a900473ffffffffffffffffffffffffffffffffffffffff1673ffffffffffffffffffffffffffffffffffffffff166108fc67016345785d8a00009081150290604051600060405180830381858888f19350505050158015610418573d6000803e3d6000fd5b5050565b600080600090505b6000805490508110156104ba578273ffffffffffffffffffffffffffffffffffffffff166000828154811061045557fe5b906000526020600020906003020160000160009054906101000a900473ffffffffffffffffffffffffffffffffffffffff1673ffffffffffffffffffffffffffffffffffffffff1614156104ad5760019150506104c0565b8080600101915050610424565b50600090505b919050565b60608060008351116104d657600080fd5b6000835190506060600282816104e857fe5b046040519080825280602002602001820160405280156105175781602001602082028038833980820191505090505b50905060606002838161052657fe5b046040519080825280602002602001820160405280156105555781602001602082028038833980820191505090505b50905060008090505b6002848161056857fe5b048110156106365786818151811061057c57fe5b602002602001015183828151811061059057fe5b602002602001019073ffffffffffffffffffffffffffffffffffffffff16908173ffffffffffffffffffffffffffffffffffffffff168152505086816001860303815181106105db57fe5b60200260200101518282815181106105ef57fe5b602002602001019073ffffffffffffffffffffffffffffffffffffffff16908173ffffffffffffffffffffffffffffffffffffffff1681525050808060010191505061055e565b50818194509450505050915091565b61064d610c64565b6040518060600160405280600073ffffffffffffffffffffffffffffffffffffffff168152602001600081526020016000815250905083816000019073ffffffffffffffffffffffffffffffffffffffff16908173ffffffffffffffffffffffffffffffffffffffff168152505082816020018181525050818160400181815250506000819080600181540180825580915050906001820390600052602060002090600302016000909192909190915060008201518160000160006101000a81548173ffffffffffffffffffffffffffffffffffffffff021916908373ffffffffffffffffffffffffffffffffffffffff16021790555060208201518160010155604082015181600201555050506001600081548092919060010191905055507f0d1d11fa08a9e61ae3bddb37d8a8a01bff70b422c2a7d160e35e2a96086d65216001546040518080602001838152602001828103825260068152602001807f6a6f696e656400000000000000000000000000000000000000000000000000008152506020019250505060405180910390a150505050565b600067016345785d8a000060015402905060006064600a83028161080557fe5b0490506000818303905060006064603c83028161081e57fe5b04905060006064601e84028161083057fe5b04905060006064600a85028161084257fe5b049050606060046040519080825280602002602001820160405280156108775781602001602082028038833980820191505090505b509050898160008151811061088857fe5b602002602001019073ffffffffffffffffffffffffffffffffffffffff16908173ffffffffffffffffffffffffffffffffffffffff168152505088816001815181106108d057fe5b602002602001019073ffffffffffffffffffffffffffffffffffffffff16908173ffffffffffffffffffffffffffffffffffffffff1681525050878160028151811061091857fe5b602002602001019073ffffffffffffffffffffffffffffffffffffffff16908173ffffffffffffffffffffffffffffffffffffffff1681525050600260009054906101000a900473ffffffffffffffffffffffffffffffffffffffff168160038151811061098257fe5b602002602001019073ffffffffffffffffffffffffffffffffffffffff16908173ffffffffffffffffffffffffffffffffffffffff1681525050606060046040519080825280602002602001820160405280156109ee5781602001602082028038833980820191505090505b50905084816000815181106109ff57fe5b6020026020010181815250508381600181518110610a1957fe5b6020026020010181815250508281600281518110610a3357fe5b6020026020010181815250508681600381518110610a4d57fe5b60200260200101818152505060008090505b60038111610b2c573373ffffffffffffffffffffffffffffffffffffffff16838281518110610a8a57fe5b602002602001015173ffffffffffffffffffffffffffffffffffffffff1614610ab257600080fd5b828181518110610abe57fe5b602002602001015173ffffffffffffffffffffffffffffffffffffffff166108fc838381518110610aeb57fe5b60200260200101519081150290604051600060405180830381858888f19350505050158015610b1e573d6000803e3d6000fd5b508080600101915050610a5f565b508a73ffffffffffffffffffffffffffffffffffffffff166108fc869081150290604051600060405180830381858888f19350505050158015610b73573d6000803e3d6000fd5b508973ffffffffffffffffffffffffffffffffffffffff166108fc859081150290604051600060405180830381858888f19350505050158015610bba573d6000803e3d6000fd5b508873ffffffffffffffffffffffffffffffffffffffff166108fc849081150290604051600060405180830381858888f19350505050158015610c01573d6000803e3d6000fd5b507f8c9573c46686b71cfbbf9e9788dc813e5b47bb4909142afb0d9bee720fee3bd08585858a6040518085815260200184815260200183815260200182815260200194505050505060405180910390a15050505050505050505050565b60015481565b6040518060600160405280600073ffffffffffffffffffffffffffffffffffffffff1681526020016000815260200160008152509056fea165627a7a72305820edd14ce3e949bac381976ab1850eb53c522ac76662bd0b88f5977bfe625423790029",
  "source": "pragma solidity >=0.5.6 <0.6.0;\n\ncontract NeutralDragonTournament{\nstruct tournamentPlayers{\n        address payable player;\n        uint256 wizardId;\n        uint256 affinityType;\n}\ntournamentPlayers[] private tPlayers;\nuint public totalNOfParticipants;\naddress payable private developer;\nevent playerJoiningEvent(string status,uint count);\nevent prizeAmount(uint prize1,uint prize2,uint tableTopScorer,uint developerCommission);\n//event prizeAmount(address wizard1Address,address wizard2Address, address wizard3Address,uint prize1,uint prize2,uint tableTopScorer,uint developerCommission,uint wizid1,uint wizid2,uint wizid3);\n\n  constructor() public{\n        developer = msg.sender;\n        totalNOfParticipants = 0;\n    }\n    function add(uint256 a, uint256 b) internal pure returns (uint256) {\n      uint256 c = a + b;\n      require(c >= a);\n\n      return c;\n    }\n\n\n   function checkPlayerExists(address playerAddress) public view returns(bool){\n        for(uint256 i = 0; i < tPlayers.length; i++){\n           if(tPlayers[i].player == playerAddress){ return true;\n             }\n        }\n        return false;\n\n}\n    function joinTournament(address payable adr,uint256 wizardId,uint affinityType) public payable{\n    tournamentPlayers memory tP = tournamentPlayers(address(0),0,0);\n        tP.player = adr;\n        tP.wizardId = wizardId;\n        tP.affinityType = affinityType;\n        tPlayers.push(tP);\n        totalNOfParticipants++;\n        emit playerJoiningEvent(\"joined\",totalNOfParticipants);\n    }\n\n    function roundFixture(address[] memory wizardAddress) public view returns(address[] memory,address[] memory) {\n \n    require(wizardAddress.length > 0);\n    uint fixtureLength = wizardAddress.length;\n    address[] memory match_Array_Wizard1 = new address[](fixtureLength/2);\n    address[] memory match_Array_Wizard2 = new address[](fixtureLength/2);\n   \n    for (uint i=0;i<fixtureLength/2;i++) {\n        match_Array_Wizard1[i] = wizardAddress[i];\n        match_Array_Wizard2[i] = wizardAddress[fixtureLength-1-i];\n        }\n   \n    return(match_Array_Wizard1,match_Array_Wizard2);\n    }\n\nfunction resendJoiningFee(address playerAdress) public payable{\n          require(playerAdress == msg.sender);\n         developer.transfer(0.1 ether);//Transfer 0.1 amount in wei\n}\n\n function distributePrize(address payable wizard1Address,address payable wizard2Address,address payable wizard3Address)  public payable{\n//   function distributePrize(address payable wizard1Address,address payable wizard2Address,address payable wizard3Address,uint wizid1,uint wizid1,uint wizid3)  public payable{\n     uint256 totalFeesCollected = totalNOfParticipants*100000000000000000;\n     uint256 developerCommission = totalFeesCollected*10/100;\n     uint256 totalPrizeMoney = totalFeesCollected - developerCommission;\n\n     uint256 prize1 = totalPrizeMoney*60/100;\n     uint256 prize2 = totalPrizeMoney*30/100;\n     uint256 tableTopScorer = totalPrizeMoney*10/100;\n     address payable[] memory winAddrs = new address payable[](4);\n    winAddrs[0] = wizard1Address;\n    winAddrs[1] = wizard2Address;\n    winAddrs[2] = wizard3Address;\n    winAddrs[3] = developer;\n    uint256[] memory prizeAmtAry = new uint256[](4);\n    prizeAmtAry[0] = prize1;\n    prizeAmtAry[1] = prize2;\n    prizeAmtAry[2] = tableTopScorer;\n    prizeAmtAry[3] = developerCommission;\n   \n    for(uint i=0;i<=3;i++)\n    {\nrequire(winAddrs[i] == msg.sender);\nwinAddrs[i].transfer(prizeAmtAry[i]);\n    }\n     wizard1Address.transfer(prize1);\n     wizard2Address.transfer(prize2);\n     wizard3Address.transfer(tableTopScorer);\n    emit prizeAmount(prize1,prize2,tableTopScorer,developerCommission);\n //  emit prizeAmount(wizard1Address,wizard2Address,wizard3Address,prize1,prize2,tableTopScorer,developerCommission,wizid1,wizid2,wizid3);\n}\n\n\n}\n",
  "sourcePath": "/Users/arunraj/Desktop/ndt/NeutralDragonTournament/NeutralDragonTournament/contracts/NeutralDragonTournament.sol",
  "compiler": {
    "name": "solc",
    "version": "0.5.8+commit.23d335f2.Emscripten.clang"
  },
  "schemaVersion": "3.0.16",
  "updatedAt": "2019-11-11T11:22:02.133Z",
  "devdoc": {
    "methods": {}
  },
  "userdoc": {
    "methods": {}
  }
}