{
  "contractName": "Enroll",
  "abi": [
    {
      "constant": true,
      "inputs": [
        {
          "name": "",
          "type": "uint256"
        }
      ],
      "name": "pArray",
      "outputs": [
        {
          "name": "plrAddress",
          "type": "address"
        },
        {
          "name": "affinity",
          "type": "uint256"
        },
        {
          "name": "wizid",
          "type": "uint256"
        }
      ],
      "payable": false,
      "stateMutability": "view",
      "type": "function"
    },
    {
      "constant": false,
      "inputs": [
        {
          "name": "adr",
          "type": "address"
        },
        {
          "name": "wizardId",
          "type": "uint256"
        },
        {
          "name": "bet",
          "type": "uint256"
        }
      ],
      "name": "joinTournament",
      "outputs": [],
      "payable": true,
      "stateMutability": "payable",
      "type": "function"
    }
  ],
  "bytecode": "0x608060405273ad81b0a267722a97289c86dd47b8f3edcdd9896e6000806101000a81548173ffffffffffffffffffffffffffffffffffffffff021916908373ffffffffffffffffffffffffffffffffffffffff16021790555034801561006457600080fd5b506102e5806100746000396000f3fe6080604052600436106100295760003560e01c8063556645581461002e578063c439316914610086575b600080fd5b6100846004803603606081101561004457600080fd5b81019080803573ffffffffffffffffffffffffffffffffffffffff169060200190929190803590602001909291908035906020019092919050505061010f565b005b34801561009257600080fd5b506100bf600480360360208110156100a957600080fd5b810190808035906020019092919050505061022b565b604051808473ffffffffffffffffffffffffffffffffffffffff1673ffffffffffffffffffffffffffffffffffffffff168152602001838152602001828152602001935050505060405180910390f35b610117610282565b6040518060600160405280600073ffffffffffffffffffffffffffffffffffffffff168152602001600081526020016000815250905083816000019073ffffffffffffffffffffffffffffffffffffffff16908173ffffffffffffffffffffffffffffffffffffffff168152505081816020018181525050828160400181815250506001819080600181540180825580915050906001820390600052602060002090600302016000909192909190915060008201518160000160006101000a81548173ffffffffffffffffffffffffffffffffffffffff021916908373ffffffffffffffffffffffffffffffffffffffff160217905550602082015181600101556040820151816002015550505050505050565b6001818154811061023857fe5b90600052602060002090600302016000915090508060000160009054906101000a900473ffffffffffffffffffffffffffffffffffffffff16908060010154908060020154905083565b6040518060600160405280600073ffffffffffffffffffffffffffffffffffffffff1681526020016000815260200160008152509056fea165627a7a72305820f2b00144951ee94d86790c2b9380d4c79683070d673a4d5eb2bf5cd71328412a0029",
  "source": "// pragma solidity >=0.5.6 <0.6.0;\n\n\n// contract Enroll{\n    \n    \n//     struct playerArr{\n//         address payable plrAddress;\n//         uint256 affinity;\n//         uint256 wizid;\n\n//     }\n\n//     playerArr[] public pArray;\n\n//         address payable developer = 0xad81B0a267722a97289C86DD47B8F3eDcDd9896E;\n\n\n     \n\n//  // function joinTournament() public {\n//       function joinTournament(address payable adr, uint bet,uint256 wizardId) public view returns (bool){\n     \n//       // Need to add wizard information..\n//         playerArr memory tP = playerArr(address(0),0,0);\n//         tP.plrAddress = adr;\n//         tP.affinity = bet;\n       \n//         // get wizardId from their method.\n//         tP.wizid = wizardId;\n//         // tP.timestamp = now;\n       \n//     // CheckForValidWizard {\n//         pArray.push(tP);\n//         // }\n\n//        return true;\n//     }\n    \n    \n// }\n\n// pragma solidity >=0.5.6 <0.6.0;\n\n// contract Enroll {\n\n \n//  string fName;\n//  uint age;\n \n//  function setInstructor(string _fName, uint _age) public {\n//    fName = _fName;\n//    age = _age;\n//  }\n \n//  function getInstructor() public constant returns (string, uint) {\n//    return (fName, age);\n//  }\n \n\n// }\n\n\npragma solidity >=0.5.6 <0.6.0;\n\n\ncontract Enroll{\n    \n    \n    struct playerArr{\n        address plrAddress;\n        uint256 affinity;\n        uint256 wizid;\n\n    }\n    address payable developer = 0xad81B0a267722a97289C86DD47B8F3eDcDd9896E;\n\n    playerArr[] public pArray;\n\n\n     // function joinTournament(address payable adr,uint wizardId, uint bet) public payable{\n\n\n    function joinTournament(address payable adr,uint wizardId, uint bet) public payable{\n     \n      // Need to add wizard information..\n        playerArr memory tP = playerArr(address(0),0,0);\n        tP.plrAddress = adr;\n        tP.affinity = bet;\n       \n        // get wizardId from their method.\n        tP.wizid = wizardId;\n        // tP.timestamp = now;\n       \n    // CheckForValidWizard {\n        pArray.push(tP);\n        // }\n\n   //     return true;\n\n\n    }\n\n    // function joinTournament(address adr,uint bet) public view returns(bool){\n\n    //     return true;\n      \n    // }\n    \n    \n}",
  "sourcePath": "/Users/arunraj/Desktop/cheezewizardsndt/contracts/Enroll.sol",
  "compiler": {
    "name": "solc",
    "version": "0.5.8+commit.23d335f2.Emscripten.clang"
  },
  "schemaVersion": "3.0.15",
  "updatedAt": "2019-09-13T12:58:59.620Z",
  "devdoc": {
    "methods": {}
  },
  "userdoc": {
    "methods": {}
  }
}